{
  "_format": "hh-sol-artifact-1",
  "contractName": "Warehouse",
  "sourceName": "contracts/product.sol",
  "abi": [
    {
      "inputs": [],
      "stateMutability": "nonpayable",
      "type": "constructor"
    },
    {
      "anonymous": false,
      "inputs": [
        {
          "indexed": true,
          "internalType": "address",
          "name": "account",
          "type": "address"
        },
        {
          "indexed": true,
          "internalType": "address",
          "name": "operator",
          "type": "address"
        },
        {
          "indexed": false,
          "internalType": "bool",
          "name": "approved",
          "type": "bool"
        }
      ],
      "name": "ApprovalForAll",
      "type": "event"
    },
    {
      "anonymous": false,
      "inputs": [
        {
          "indexed": true,
          "internalType": "address",
          "name": "previousOwner",
          "type": "address"
        },
        {
          "indexed": true,
          "internalType": "address",
          "name": "newOwner",
          "type": "address"
        }
      ],
      "name": "OwnershipTransferred",
      "type": "event"
    },
    {
      "anonymous": false,
      "inputs": [
        {
          "indexed": true,
          "internalType": "address",
          "name": "operator",
          "type": "address"
        },
        {
          "indexed": true,
          "internalType": "address",
          "name": "from",
          "type": "address"
        },
        {
          "indexed": true,
          "internalType": "address",
          "name": "to",
          "type": "address"
        },
        {
          "indexed": false,
          "internalType": "uint256[]",
          "name": "ids",
          "type": "uint256[]"
        },
        {
          "indexed": false,
          "internalType": "uint256[]",
          "name": "values",
          "type": "uint256[]"
        }
      ],
      "name": "TransferBatch",
      "type": "event"
    },
    {
      "anonymous": false,
      "inputs": [
        {
          "indexed": true,
          "internalType": "address",
          "name": "operator",
          "type": "address"
        },
        {
          "indexed": true,
          "internalType": "address",
          "name": "from",
          "type": "address"
        },
        {
          "indexed": true,
          "internalType": "address",
          "name": "to",
          "type": "address"
        },
        {
          "indexed": false,
          "internalType": "uint256",
          "name": "id",
          "type": "uint256"
        },
        {
          "indexed": false,
          "internalType": "uint256",
          "name": "value",
          "type": "uint256"
        }
      ],
      "name": "TransferSingle",
      "type": "event"
    },
    {
      "anonymous": false,
      "inputs": [
        {
          "indexed": false,
          "internalType": "string",
          "name": "value",
          "type": "string"
        },
        {
          "indexed": true,
          "internalType": "uint256",
          "name": "id",
          "type": "uint256"
        }
      ],
      "name": "URI",
      "type": "event"
    },
    {
      "inputs": [
        {
          "internalType": "uint256[]",
          "name": "ids",
          "type": "uint256[]"
        },
        {
          "internalType": "uint256[]",
          "name": "amounts",
          "type": "uint256[]"
        },
        {
          "internalType": "bytes",
          "name": "data",
          "type": "bytes"
        },
        {
          "internalType": "string[]",
          "name": "uri",
          "type": "string[]"
        }
      ],
      "name": "AddProducts",
      "outputs": [],
      "stateMutability": "nonpayable",
      "type": "function"
    },
    {
      "inputs": [
        {
          "internalType": "address",
          "name": "newone",
          "type": "address"
        }
      ],
      "name": "addAccess",
      "outputs": [],
      "stateMutability": "nonpayable",
      "type": "function"
    },
    {
      "inputs": [
        {
          "internalType": "uint256",
          "name": "id",
          "type": "uint256"
        },
        {
          "internalType": "uint256",
          "name": "amount",
          "type": "uint256"
        },
        {
          "internalType": "bytes",
          "name": "data",
          "type": "bytes"
        },
        {
          "internalType": "string",
          "name": "uri",
          "type": "string"
        }
      ],
      "name": "addProduct",
      "outputs": [],
      "stateMutability": "nonpayable",
      "type": "function"
    },
    {
      "inputs": [
        {
          "internalType": "address",
          "name": "user",
          "type": "address"
        }
      ],
      "name": "allowed",
      "outputs": [
        {
          "internalType": "bool",
          "name": "",
          "type": "bool"
        }
      ],
      "stateMutability": "view",
      "type": "function"
    },
    {
      "inputs": [
        {
          "internalType": "address",
          "name": "account",
          "type": "address"
        },
        {
          "internalType": "uint256",
          "name": "id",
          "type": "uint256"
        }
      ],
      "name": "balanceOf",
      "outputs": [
        {
          "internalType": "uint256",
          "name": "",
          "type": "uint256"
        }
      ],
      "stateMutability": "view",
      "type": "function"
    },
    {
      "inputs": [
        {
          "internalType": "address[]",
          "name": "accounts",
          "type": "address[]"
        },
        {
          "internalType": "uint256[]",
          "name": "ids",
          "type": "uint256[]"
        }
      ],
      "name": "balanceOfBatch",
      "outputs": [
        {
          "internalType": "uint256[]",
          "name": "",
          "type": "uint256[]"
        }
      ],
      "stateMutability": "view",
      "type": "function"
    },
    {
      "inputs": [
        {
          "internalType": "address",
          "name": "account",
          "type": "address"
        },
        {
          "internalType": "uint256",
          "name": "id",
          "type": "uint256"
        },
        {
          "internalType": "uint256",
          "name": "value",
          "type": "uint256"
        }
      ],
      "name": "burn",
      "outputs": [],
      "stateMutability": "nonpayable",
      "type": "function"
    },
    {
      "inputs": [
        {
          "internalType": "address",
          "name": "account",
          "type": "address"
        },
        {
          "internalType": "uint256[]",
          "name": "ids",
          "type": "uint256[]"
        },
        {
          "internalType": "uint256[]",
          "name": "values",
          "type": "uint256[]"
        }
      ],
      "name": "burnBatch",
      "outputs": [],
      "stateMutability": "nonpayable",
      "type": "function"
    },
    {
      "inputs": [
        {
          "internalType": "uint256",
          "name": "id",
          "type": "uint256"
        }
      ],
      "name": "exists",
      "outputs": [
        {
          "internalType": "bool",
          "name": "",
          "type": "bool"
        }
      ],
      "stateMutability": "view",
      "type": "function"
    },
    {
      "inputs": [
        {
          "internalType": "address",
          "name": "account",
          "type": "address"
        },
        {
          "internalType": "address",
          "name": "operator",
          "type": "address"
        }
      ],
      "name": "isApprovedForAll",
      "outputs": [
        {
          "internalType": "bool",
          "name": "",
          "type": "bool"
        }
      ],
      "stateMutability": "view",
      "type": "function"
    },
    {
      "inputs": [],
      "name": "manager",
      "outputs": [
        {
          "internalType": "address",
          "name": "",
          "type": "address"
        }
      ],
      "stateMutability": "view",
      "type": "function"
    },
    {
      "inputs": [],
      "name": "owner",
      "outputs": [
        {
          "internalType": "address",
          "name": "",
          "type": "address"
        }
      ],
      "stateMutability": "view",
      "type": "function"
    },
    {
      "inputs": [
        {
          "internalType": "address",
          "name": "newone",
          "type": "address"
        }
      ],
      "name": "removeAccess",
      "outputs": [],
      "stateMutability": "nonpayable",
      "type": "function"
    },
    {
      "inputs": [
        {
          "internalType": "address",
          "name": "account",
          "type": "address"
        },
        {
          "internalType": "uint256",
          "name": "_id",
          "type": "uint256"
        },
        {
          "internalType": "uint256",
          "name": "_amount",
          "type": "uint256"
        }
      ],
      "name": "removeProduct",
      "outputs": [],
      "stateMutability": "nonpayable",
      "type": "function"
    },
    {
      "inputs": [],
      "name": "renounceOwnership",
      "outputs": [],
      "stateMutability": "nonpayable",
      "type": "function"
    },
    {
      "inputs": [
        {
          "internalType": "address",
          "name": "from",
          "type": "address"
        },
        {
          "internalType": "address",
          "name": "to",
          "type": "address"
        },
        {
          "internalType": "uint256[]",
          "name": "ids",
          "type": "uint256[]"
        },
        {
          "internalType": "uint256[]",
          "name": "amounts",
          "type": "uint256[]"
        },
        {
          "internalType": "bytes",
          "name": "data",
          "type": "bytes"
        }
      ],
      "name": "safeBatchTransferFrom",
      "outputs": [],
      "stateMutability": "nonpayable",
      "type": "function"
    },
    {
      "inputs": [
        {
          "internalType": "address",
          "name": "from",
          "type": "address"
        },
        {
          "internalType": "address",
          "name": "to",
          "type": "address"
        },
        {
          "internalType": "uint256",
          "name": "id",
          "type": "uint256"
        },
        {
          "internalType": "uint256",
          "name": "amount",
          "type": "uint256"
        },
        {
          "internalType": "bytes",
          "name": "data",
          "type": "bytes"
        }
      ],
      "name": "safeTransferFrom",
      "outputs": [],
      "stateMutability": "nonpayable",
      "type": "function"
    },
    {
      "inputs": [
        {
          "internalType": "address",
          "name": "operator",
          "type": "address"
        },
        {
          "internalType": "bool",
          "name": "approved",
          "type": "bool"
        }
      ],
      "name": "setApprovalForAll",
      "outputs": [],
      "stateMutability": "nonpayable",
      "type": "function"
    },
    {
      "inputs": [
        {
          "internalType": "uint256",
          "name": "tokenId",
          "type": "uint256"
        },
        {
          "internalType": "string",
          "name": "_uri",
          "type": "string"
        }
      ],
      "name": "setURI",
      "outputs": [],
      "stateMutability": "nonpayable",
      "type": "function"
    },
    {
      "inputs": [
        {
          "internalType": "bytes4",
          "name": "interfaceId",
          "type": "bytes4"
        }
      ],
      "name": "supportsInterface",
      "outputs": [
        {
          "internalType": "bool",
          "name": "",
          "type": "bool"
        }
      ],
      "stateMutability": "view",
      "type": "function"
    },
    {
      "inputs": [
        {
          "internalType": "uint256",
          "name": "id",
          "type": "uint256"
        }
      ],
      "name": "totalSupply",
      "outputs": [
        {
          "internalType": "uint256",
          "name": "",
          "type": "uint256"
        }
      ],
      "stateMutability": "view",
      "type": "function"
    },
    {
      "inputs": [
        {
          "internalType": "address",
          "name": "newOwner",
          "type": "address"
        }
      ],
      "name": "transferOwnership",
      "outputs": [],
      "stateMutability": "nonpayable",
      "type": "function"
    },
    {
      "inputs": [
        {
          "internalType": "uint256",
          "name": "",
          "type": "uint256"
        }
      ],
      "name": "uri",
      "outputs": [
        {
          "internalType": "string",
          "name": "",
          "type": "string"
        }
      ],
      "stateMutability": "view",
      "type": "function"
    },
    {
      "inputs": [
        {
          "internalType": "uint256",
          "name": "tokenid",
          "type": "uint256"
        }
      ],
      "name": "uris",
      "outputs": [
        {
          "internalType": "string",
          "name": "uri",
          "type": "string"
        }
      ],
      "stateMutability": "view",
      "type": "function"
    }
  ],
  "bytecode": "0x60806040523480156200001157600080fd5b506040805160208101909152600081526200002c8162000073565b50620000383362000085565b60016005819055600680546001600160a01b031916339081179091556000908152600860205260409020805460ff1916909117905562000248565b60026200008182826200017c565b5050565b600380546001600160a01b038381166001600160a01b0319831681179093556040519116919082907f8be0079c531659141344cd1fd0a4f28419497f9722a3daafe3b4186f6b6457e090600090a35050565b634e487b7160e01b600052604160045260246000fd5b600181811c908216806200010257607f821691505b6020821081036200012357634e487b7160e01b600052602260045260246000fd5b50919050565b601f8211156200017757600081815260208120601f850160051c81016020861015620001525750805b601f850160051c820191505b8181101562000173578281556001016200015e565b5050505b505050565b81516001600160401b03811115620001985762000198620000d7565b620001b081620001a98454620000ed565b8462000129565b602080601f831160018114620001e85760008415620001cf5750858301515b600019600386901b1c1916600185901b17855562000173565b600085815260208120601f198616915b828110156200021957888601518255948401946001909101908401620001f8565b5085821015620002385787850151600019600388901b60f8161c191681555b5050505050600190811b01905550565b61288d80620002586000396000f3fe608060405234801561001057600080fd5b50600436106101975760003560e01c8063862440e2116100e3578063d63a8e111161008c578063f2fde38b11610066578063f2fde38b146103ca578063f5298aca146103dd578063f6042e51146103f057600080fd5b8063d63a8e1114610358578063e985e9c51461037b578063f242432a146103b757600080fd5b8063a118f249116100bd578063a118f24914610312578063a22cb46514610325578063bd85b0391461033857600080fd5b8063862440e2146102db5780638823da6c146102ee5780638da5cb5b1461030157600080fd5b8063481c6a751161014557806358c0e9db1161011f57806358c0e9db146102ad5780636b20c454146102c0578063715018a6146102d357600080fd5b8063481c6a75146102405780634e1273f41461026b5780634f558e791461028b57600080fd5b80631100fe49116101765780631100fe49146102055780631253c5461461021a5780632eb2c2d61461022d57600080fd5b8062fdd58e1461019c57806301ffc9a7146101c25780630e89341c146101e5575b600080fd5b6101af6101aa366004611dd9565b610403565b6040519081526020015b60405180910390f35b6101d56101d0366004611e19565b6104af565b60405190151581526020016101b9565b6101f86101f3366004611e3d565b61054a565b6040516101b99190611e9c565b610218610213366004611eaf565b6105de565b005b6101f8610228366004611e3d565b6105f6565b61021861023b36600461202e565b610690565b600654610253906001600160a01b031681565b6040516001600160a01b0390911681526020016101b9565b61027e6102793660046120d8565b610723565b6040516101b991906121de565b6101d5610299366004611e3d565b600090815260046020526040902054151590565b6102186102bb3660046121f1565b610861565b6102186102ce366004612316565b61093c565b6102186109c6565b6102186102e936600461238a565b6109da565b6102186102fc3660046123c7565b6109f2565b6003546001600160a01b0316610253565b6102186103203660046123c7565b610a1b565b6102186103333660046123e2565b610a47565b6101af610346366004611e3d565b60009081526004602052604090205490565b6101d56103663660046123c7565b60086020526000908152604090205460ff1681565b6101d561038936600461241e565b6001600160a01b03918216600090815260016020908152604080832093909416825291909152205460ff1690565b6102186103c5366004612451565b610a56565b6102186103d83660046123c7565b610ae2565b6102186103eb366004611eaf565b610b72565b6102186103fe3660046124b6565b610bfc565b60006001600160a01b0383166104865760405162461bcd60e51b815260206004820152602a60248201527f455243313135353a2061646472657373207a65726f206973206e6f742061207660448201527f616c6964206f776e65720000000000000000000000000000000000000000000060648201526084015b60405180910390fd5b506000818152602081815260408083206001600160a01b03861684529091529020545b92915050565b60006001600160e01b031982167fd9b67a2600000000000000000000000000000000000000000000000000000000148061051257506001600160e01b031982167f0e89341c00000000000000000000000000000000000000000000000000000000145b806104a957507f01ffc9a7000000000000000000000000000000000000000000000000000000006001600160e01b03198316146104a9565b6060600280546105599061252d565b80601f01602080910402602001604051908101604052809291908181526020018280546105859061252d565b80156105d25780601f106105a7576101008083540402835291602001916105d2565b820191906000526020600020905b8154815290600101906020018083116105b557829003601f168201915b50505050509050919050565b6105e6610c7e565b6105f1838383610b72565b505050565b6009602052600090815260409020805461060f9061252d565b80601f016020809104026020016040519081016040528092919081815260200182805461063b9061252d565b80156106885780601f1061065d57610100808354040283529160200191610688565b820191906000526020600020905b81548152906001019060200180831161066b57829003601f168201915b505050505081565b6001600160a01b0385163314806106ac57506106ac8533610389565b61070f5760405162461bcd60e51b815260206004820152602e60248201527f455243313135353a2063616c6c6572206973206e6f7420746f6b656e206f776e60448201526d195c881bdc88185c1c1c9bdd995960921b606482015260840161047d565b61071c8585858585610cd8565b5050505050565b6060815183511461079c5760405162461bcd60e51b815260206004820152602960248201527f455243313135353a206163636f756e747320616e6420696473206c656e67746860448201527f206d69736d617463680000000000000000000000000000000000000000000000606482015260840161047d565b6000835167ffffffffffffffff8111156107b8576107b8611ee2565b6040519080825280602002602001820160405280156107e1578160200160208202803683370190505b50905060005b84518110156108595761082c85828151811061080557610805612567565b602002602001015185838151811061081f5761081f612567565b6020026020010151610403565b82828151811061083e5761083e612567565b602090810291909101015261085281612593565b90506107e7565b509392505050565b3360009081526008602052604090205460ff1615156001146108b35760405162461bcd60e51b815260206004820152600b60248201526a139bdd08105b1b1bddd95960aa1b604482015260640161047d565b6006546108cb906001600160a01b0316858585610f44565b60005b845181101561071c578181815181106108e9576108e9612567565b60200260200101516009600087848151811061090757610907612567565b60200260200101518152602001908152602001600020908161092991906125f2565b508061093481612593565b9150506108ce565b6001600160a01b03831633148061095857506109588333610389565b6109bb5760405162461bcd60e51b815260206004820152602e60248201527f455243313135353a2063616c6c6572206973206e6f7420746f6b656e206f776e60448201526d195c881bdc88185c1c1c9bdd995960921b606482015260840161047d565b6105f1838383611119565b6109ce610c7e565b6109d8600061136f565b565b60008281526009602052604090206105f182826125f2565b6109fa610c7e565b6001600160a01b03166000908152600860205260409020805460ff19169055565b610a23610c7e565b6001600160a01b03166000908152600860205260409020805460ff19166001179055565b610a523383836113d9565b5050565b6001600160a01b038516331480610a725750610a728533610389565b610ad55760405162461bcd60e51b815260206004820152602e60248201527f455243313135353a2063616c6c6572206973206e6f7420746f6b656e206f776e60448201526d195c881bdc88185c1c1c9bdd995960921b606482015260840161047d565b61071c85858585856114cd565b610aea610c7e565b6001600160a01b038116610b665760405162461bcd60e51b815260206004820152602660248201527f4f776e61626c653a206e6577206f776e657220697320746865207a65726f206160448201527f6464726573730000000000000000000000000000000000000000000000000000606482015260840161047d565b610b6f8161136f565b50565b6001600160a01b038316331480610b8e5750610b8e8333610389565b610bf15760405162461bcd60e51b815260206004820152602e60248201527f455243313135353a2063616c6c6572206973206e6f7420746f6b656e206f776e60448201526d195c881bdc88185c1c1c9bdd995960921b606482015260840161047d565b6105f1838383611686565b3360009081526008602052604090205460ff161515600114610c4e5760405162461bcd60e51b815260206004820152600b60248201526a139bdd08105b1b1bddd95960aa1b604482015260640161047d565b600654610c66906001600160a01b031685858561181b565b600084815260096020526040902061071c82826125f2565b6003546001600160a01b031633146109d85760405162461bcd60e51b815260206004820181905260248201527f4f776e61626c653a2063616c6c6572206973206e6f7420746865206f776e6572604482015260640161047d565b8151835114610d3a5760405162461bcd60e51b815260206004820152602860248201527f455243313135353a2069647320616e6420616d6f756e7473206c656e677468206044820152670dad2e6dac2e8c6d60c31b606482015260840161047d565b6001600160a01b038416610d9e5760405162461bcd60e51b815260206004820152602560248201527f455243313135353a207472616e7366657220746f20746865207a65726f206164604482015264647265737360d81b606482015260840161047d565b33610dad818787878787611935565b60005b8451811015610ed6576000858281518110610dcd57610dcd612567565b602002602001015190506000858381518110610deb57610deb612567565b602090810291909101810151600084815280835260408082206001600160a01b038e168352909352919091205490915081811015610e7e5760405162461bcd60e51b815260206004820152602a60248201527f455243313135353a20696e73756666696369656e742062616c616e636520666f60448201526939103a3930b739b332b960b11b606482015260840161047d565b6000838152602081815260408083206001600160a01b038e8116855292528083208585039055908b16825281208054849290610ebb9084906126b2565b9250508190555050505080610ecf90612593565b9050610db0565b50846001600160a01b0316866001600160a01b0316826001600160a01b03167f4a39dc06d4c0dbc64b70af90fd698a233a518aa5d07e595d983b8c0526c8f7fb8787604051610f269291906126c5565b60405180910390a4610f3c818787878787611943565b505050505050565b6001600160a01b038416610fa45760405162461bcd60e51b815260206004820152602160248201527f455243313135353a206d696e7420746f20746865207a65726f206164647265736044820152607360f81b606482015260840161047d565b81518351146110065760405162461bcd60e51b815260206004820152602860248201527f455243313135353a2069647320616e6420616d6f756e7473206c656e677468206044820152670dad2e6dac2e8c6d60c31b606482015260840161047d565b3361101681600087878787611935565b60005b84518110156110b15783818151811061103457611034612567565b602002602001015160008087848151811061105157611051612567565b602002602001015181526020019081526020016000206000886001600160a01b03166001600160a01b03168152602001908152602001600020600082825461109991906126b2565b909155508190506110a981612593565b915050611019565b50846001600160a01b031660006001600160a01b0316826001600160a01b03167f4a39dc06d4c0dbc64b70af90fd698a233a518aa5d07e595d983b8c0526c8f7fb87876040516111029291906126c5565b60405180910390a461071c81600087878787611943565b6001600160a01b03831661117b5760405162461bcd60e51b815260206004820152602360248201527f455243313135353a206275726e2066726f6d20746865207a65726f206164647260448201526265737360e81b606482015260840161047d565b80518251146111dd5760405162461bcd60e51b815260206004820152602860248201527f455243313135353a2069647320616e6420616d6f756e7473206c656e677468206044820152670dad2e6dac2e8c6d60c31b606482015260840161047d565b600033905061120081856000868660405180602001604052806000815250611935565b60005b835181101561130157600084828151811061122057611220612567565b60200260200101519050600084838151811061123e5761123e612567565b602090810291909101810151600084815280835260408082206001600160a01b038c1683529093529190912054909150818110156112ca5760405162461bcd60e51b8152602060048201526024808201527f455243313135353a206275726e20616d6f756e7420657863656564732062616c604482015263616e636560e01b606482015260840161047d565b6000928352602083815260408085206001600160a01b038b16865290915290922091039055806112f981612593565b915050611203565b5060006001600160a01b0316846001600160a01b0316826001600160a01b03167f4a39dc06d4c0dbc64b70af90fd698a233a518aa5d07e595d983b8c0526c8f7fb86866040516113529291906126c5565b60405180910390a460408051602081019091526000905250505050565b600380546001600160a01b038381167fffffffffffffffffffffffff0000000000000000000000000000000000000000831681179093556040519116919082907f8be0079c531659141344cd1fd0a4f28419497f9722a3daafe3b4186f6b6457e090600090a35050565b816001600160a01b0316836001600160a01b0316036114605760405162461bcd60e51b815260206004820152602960248201527f455243313135353a2073657474696e6720617070726f76616c2073746174757360448201527f20666f722073656c660000000000000000000000000000000000000000000000606482015260840161047d565b6001600160a01b03838116600081815260016020908152604080832094871680845294825291829020805460ff191686151590811790915591519182527f17307eab39ab6107e8899845ad3d59bd9653f200f220920489ca2b5937696c31910160405180910390a3505050565b6001600160a01b0384166115315760405162461bcd60e51b815260206004820152602560248201527f455243313135353a207472616e7366657220746f20746865207a65726f206164604482015264647265737360d81b606482015260840161047d565b33600061153d85611ae8565b9050600061154a85611ae8565b905061155a838989858589611935565b6000868152602081815260408083206001600160a01b038c168452909152902054858110156115de5760405162461bcd60e51b815260206004820152602a60248201527f455243313135353a20696e73756666696369656e742062616c616e636520666f60448201526939103a3930b739b332b960b11b606482015260840161047d565b6000878152602081815260408083206001600160a01b038d8116855292528083208985039055908a1682528120805488929061161b9084906126b2565b909155505060408051888152602081018890526001600160a01b03808b16928c821692918816917fc3d58168c5ae7397731d063d5bbf3d657854427343f4c083240f7aacaa2d0f62910160405180910390a461167b848a8a8a8a8a611b33565b505050505050505050565b6001600160a01b0383166116e85760405162461bcd60e51b815260206004820152602360248201527f455243313135353a206275726e2066726f6d20746865207a65726f206164647260448201526265737360e81b606482015260840161047d565b3360006116f484611ae8565b9050600061170184611ae8565b905061172183876000858560405180602001604052806000815250611935565b6000858152602081815260408083206001600160a01b038a1684529091529020548481101561179e5760405162461bcd60e51b8152602060048201526024808201527f455243313135353a206275726e20616d6f756e7420657863656564732062616c604482015263616e636560e01b606482015260840161047d565b6000868152602081815260408083206001600160a01b038b81168086529184528285208a8703905582518b81529384018a90529092908816917fc3d58168c5ae7397731d063d5bbf3d657854427343f4c083240f7aacaa2d0f62910160405180910390a46040805160208101909152600090525b50505050505050565b6001600160a01b03841661187b5760405162461bcd60e51b815260206004820152602160248201527f455243313135353a206d696e7420746f20746865207a65726f206164647265736044820152607360f81b606482015260840161047d565b33600061188785611ae8565b9050600061189485611ae8565b90506118a583600089858589611935565b6000868152602081815260408083206001600160a01b038b168452909152812080548792906118d59084906126b2565b909155505060408051878152602081018790526001600160a01b03808a1692600092918716917fc3d58168c5ae7397731d063d5bbf3d657854427343f4c083240f7aacaa2d0f62910160405180910390a461181283600089898989611b33565b610f3c868686868686611c2f565b6001600160a01b0384163b15610f3c5760405163bc197c8160e01b81526001600160a01b0385169063bc197c819061198790899089908890889088906004016126f3565b6020604051808303816000875af19250505080156119c2575060408051601f3d908101601f191682019092526119bf91810190612751565b60015b611a77576119ce61276e565b806308c379a003611a0757506119e261278a565b806119ed5750611a09565b8060405162461bcd60e51b815260040161047d9190611e9c565b505b60405162461bcd60e51b815260206004820152603460248201527f455243313135353a207472616e7366657220746f206e6f6e2d4552433131353560448201527f526563656976657220696d706c656d656e746572000000000000000000000000606482015260840161047d565b6001600160e01b0319811663bc197c8160e01b146118125760405162461bcd60e51b815260206004820152602860248201527f455243313135353a204552433131353552656365697665722072656a656374656044820152676420746f6b656e7360c01b606482015260840161047d565b60408051600180825281830190925260609160009190602080830190803683370190505090508281600081518110611b2257611b22612567565b602090810291909101015292915050565b6001600160a01b0384163b15610f3c5760405163f23a6e6160e01b81526001600160a01b0385169063f23a6e6190611b779089908990889088908890600401612814565b6020604051808303816000875af1925050508015611bb2575060408051601f3d908101601f19168201909252611baf91810190612751565b60015b611bbe576119ce61276e565b6001600160e01b0319811663f23a6e6160e01b146118125760405162461bcd60e51b815260206004820152602860248201527f455243313135353a204552433131353552656365697665722072656a656374656044820152676420746f6b656e7360c01b606482015260840161047d565b6001600160a01b038516611cb65760005b8351811015611cb457828181518110611c5b57611c5b612567565b602002602001015160046000868481518110611c7957611c79612567565b602002602001015181526020019081526020016000206000828254611c9e91906126b2565b90915550611cad905081612593565b9050611c40565b505b6001600160a01b038416610f3c5760005b8351811015611812576000848281518110611ce457611ce4612567565b602002602001015190506000848381518110611d0257611d02612567565b6020026020010151905060006004600084815260200190815260200160002054905081811015611d9a5760405162461bcd60e51b815260206004820152602860248201527f455243313135353a206275726e20616d6f756e74206578636565647320746f7460448201527f616c537570706c79000000000000000000000000000000000000000000000000606482015260840161047d565b60009283526004602052604090922091039055611db681612593565b9050611cc7565b80356001600160a01b0381168114611dd457600080fd5b919050565b60008060408385031215611dec57600080fd5b611df583611dbd565b946020939093013593505050565b6001600160e01b031981168114610b6f57600080fd5b600060208284031215611e2b57600080fd5b8135611e3681611e03565b9392505050565b600060208284031215611e4f57600080fd5b5035919050565b6000815180845260005b81811015611e7c57602081850181015186830182015201611e60565b506000602082860101526020601f19601f83011685010191505092915050565b602081526000611e366020830184611e56565b600080600060608486031215611ec457600080fd5b611ecd84611dbd565b95602085013595506040909401359392505050565b634e487b7160e01b600052604160045260246000fd5b601f8201601f1916810167ffffffffffffffff81118282101715611f1e57611f1e611ee2565b6040525050565b600067ffffffffffffffff821115611f3f57611f3f611ee2565b5060051b60200190565b600082601f830112611f5a57600080fd5b81356020611f6782611f25565b604051611f748282611ef8565b83815260059390931b8501820192828101915086841115611f9457600080fd5b8286015b84811015611faf5780358352918301918301611f98565b509695505050505050565b600082601f830112611fcb57600080fd5b813567ffffffffffffffff811115611fe557611fe5611ee2565b604051611ffc601f8301601f191660200182611ef8565b81815284602083860101111561201157600080fd5b816020850160208301376000918101602001919091529392505050565b600080600080600060a0868803121561204657600080fd5b61204f86611dbd565b945061205d60208701611dbd565b9350604086013567ffffffffffffffff8082111561207a57600080fd5b61208689838a01611f49565b9450606088013591508082111561209c57600080fd5b6120a889838a01611f49565b935060808801359150808211156120be57600080fd5b506120cb88828901611fba565b9150509295509295909350565b600080604083850312156120eb57600080fd5b823567ffffffffffffffff8082111561210357600080fd5b818501915085601f83011261211757600080fd5b8135602061212482611f25565b6040516121318282611ef8565b83815260059390931b850182019282810191508984111561215157600080fd5b948201945b838610156121765761216786611dbd565b82529482019490820190612156565b9650508601359250508082111561218c57600080fd5b5061219985828601611f49565b9150509250929050565b600081518084526020808501945080840160005b838110156121d3578151875295820195908201906001016121b7565b509495945050505050565b602081526000611e3660208301846121a3565b6000806000806080858703121561220757600080fd5b843567ffffffffffffffff8082111561221f57600080fd5b61222b88838901611f49565b955060209150818701358181111561224257600080fd5b61224e89828a01611f49565b95505060408701358181111561226357600080fd5b61226f89828a01611fba565b94505060608701358181111561228457600080fd5b8701601f8101891361229557600080fd5b80356122a081611f25565b6040516122ad8282611ef8565b82815260059290921b830185019185810191508b8311156122cd57600080fd5b8584015b83811015612305578035868111156122e95760008081fd5b6122f78e8983890101611fba565b8452509186019186016122d1565b50989b979a50959850505050505050565b60008060006060848603121561232b57600080fd5b61233484611dbd565b9250602084013567ffffffffffffffff8082111561235157600080fd5b61235d87838801611f49565b9350604086013591508082111561237357600080fd5b5061238086828701611f49565b9150509250925092565b6000806040838503121561239d57600080fd5b82359150602083013567ffffffffffffffff8111156123bb57600080fd5b61219985828601611fba565b6000602082840312156123d957600080fd5b611e3682611dbd565b600080604083850312156123f557600080fd5b6123fe83611dbd565b91506020830135801515811461241357600080fd5b809150509250929050565b6000806040838503121561243157600080fd5b61243a83611dbd565b915061244860208401611dbd565b90509250929050565b600080600080600060a0868803121561246957600080fd5b61247286611dbd565b945061248060208701611dbd565b93506040860135925060608601359150608086013567ffffffffffffffff8111156124aa57600080fd5b6120cb88828901611fba565b600080600080608085870312156124cc57600080fd5b8435935060208501359250604085013567ffffffffffffffff808211156124f257600080fd5b6124fe88838901611fba565b9350606087013591508082111561251457600080fd5b5061252187828801611fba565b91505092959194509250565b600181811c9082168061254157607f821691505b60208210810361256157634e487b7160e01b600052602260045260246000fd5b50919050565b634e487b7160e01b600052603260045260246000fd5b634e487b7160e01b600052601160045260246000fd5b6000600182016125a5576125a561257d565b5060010190565b601f8211156105f157600081815260208120601f850160051c810160208610156125d35750805b601f850160051c820191505b81811015610f3c578281556001016125df565b815167ffffffffffffffff81111561260c5761260c611ee2565b6126208161261a845461252d565b846125ac565b602080601f831160018114612655576000841561263d5750858301515b600019600386901b1c1916600185901b178555610f3c565b600085815260208120601f198616915b8281101561268457888601518255948401946001909101908401612665565b50858210156126a25787850151600019600388901b60f8161c191681555b5050505050600190811b01905550565b808201808211156104a9576104a961257d565b6040815260006126d860408301856121a3565b82810360208401526126ea81856121a3565b95945050505050565b60006001600160a01b03808816835280871660208401525060a0604083015261271f60a08301866121a3565b828103606084015261273181866121a3565b905082810360808401526127458185611e56565b98975050505050505050565b60006020828403121561276357600080fd5b8151611e3681611e03565b600060033d11156127875760046000803e5060005160e01c5b90565b600060443d10156127985790565b6040516003193d81016004833e81513d67ffffffffffffffff81602484011181841117156127c857505050505090565b82850191508151818111156127e05750505050505090565b843d87010160208285010111156127fa5750505050505090565b61280960208286010187611ef8565b509095945050505050565b60006001600160a01b03808816835280871660208401525084604083015283606083015260a0608083015261284c60a0830184611e56565b97965050505050505056fea264697066735822122068020011c50522766e8409c042e78329c03dcf20ddd8a4f08c3862647c2aeb3c64736f6c63430008120033",
  "linkReferences": {},
  "deployedLinkReferences": {}
}