{
  "_format": "hh-sol-artifact-1",
  "contractName": "Warehouse",
  "sourceName": "contracts/product.sol",
  "abi": [
    {
      "inputs": [],
      "stateMutability": "nonpayable",
      "type": "constructor"
    },
    {
      "anonymous": false,
      "inputs": [
        {
          "indexed": true,
          "internalType": "address",
          "name": "account",
          "type": "address"
        },
        {
          "indexed": true,
          "internalType": "address",
          "name": "operator",
          "type": "address"
        },
        {
          "indexed": false,
          "internalType": "bool",
          "name": "approved",
          "type": "bool"
        }
      ],
      "name": "ApprovalForAll",
      "type": "event"
    },
    {
      "anonymous": false,
      "inputs": [
        {
          "indexed": true,
          "internalType": "address",
          "name": "previousOwner",
          "type": "address"
        },
        {
          "indexed": true,
          "internalType": "address",
          "name": "newOwner",
          "type": "address"
        }
      ],
      "name": "OwnershipTransferred",
      "type": "event"
    },
    {
      "anonymous": false,
      "inputs": [
        {
          "indexed": true,
          "internalType": "address",
          "name": "operator",
          "type": "address"
        },
        {
          "indexed": true,
          "internalType": "address",
          "name": "from",
          "type": "address"
        },
        {
          "indexed": true,
          "internalType": "address",
          "name": "to",
          "type": "address"
        },
        {
          "indexed": false,
          "internalType": "uint256[]",
          "name": "ids",
          "type": "uint256[]"
        },
        {
          "indexed": false,
          "internalType": "uint256[]",
          "name": "values",
          "type": "uint256[]"
        }
      ],
      "name": "TransferBatch",
      "type": "event"
    },
    {
      "anonymous": false,
      "inputs": [
        {
          "indexed": true,
          "internalType": "address",
          "name": "operator",
          "type": "address"
        },
        {
          "indexed": true,
          "internalType": "address",
          "name": "from",
          "type": "address"
        },
        {
          "indexed": true,
          "internalType": "address",
          "name": "to",
          "type": "address"
        },
        {
          "indexed": false,
          "internalType": "uint256",
          "name": "id",
          "type": "uint256"
        },
        {
          "indexed": false,
          "internalType": "uint256",
          "name": "value",
          "type": "uint256"
        }
      ],
      "name": "TransferSingle",
      "type": "event"
    },
    {
      "anonymous": false,
      "inputs": [
        {
          "indexed": false,
          "internalType": "string",
          "name": "value",
          "type": "string"
        },
        {
          "indexed": true,
          "internalType": "uint256",
          "name": "id",
          "type": "uint256"
        }
      ],
      "name": "URI",
      "type": "event"
    },
    {
      "inputs": [
        {
          "internalType": "uint256[]",
          "name": "ids",
          "type": "uint256[]"
        },
        {
          "internalType": "uint256[]",
          "name": "amounts",
          "type": "uint256[]"
        },
        {
          "internalType": "string[]",
          "name": "uri",
          "type": "string[]"
        }
      ],
      "name": "AddProducts",
      "outputs": [],
      "stateMutability": "nonpayable",
      "type": "function"
    },
    {
      "inputs": [
        {
          "internalType": "address",
          "name": "retailer",
          "type": "address"
        }
      ],
      "name": "AddRetailer",
      "outputs": [],
      "stateMutability": "nonpayable",
      "type": "function"
    },
    {
      "inputs": [
        {
          "internalType": "address",
          "name": "newone",
          "type": "address"
        }
      ],
      "name": "addAccess",
      "outputs": [],
      "stateMutability": "nonpayable",
      "type": "function"
    },
    {
      "inputs": [
        {
          "internalType": "address",
          "name": "user",
          "type": "address"
        }
      ],
      "name": "allowed",
      "outputs": [
        {
          "internalType": "bool",
          "name": "",
          "type": "bool"
        }
      ],
      "stateMutability": "view",
      "type": "function"
    },
    {
      "inputs": [
        {
          "internalType": "address",
          "name": "account",
          "type": "address"
        },
        {
          "internalType": "uint256",
          "name": "id",
          "type": "uint256"
        }
      ],
      "name": "balanceOf",
      "outputs": [
        {
          "internalType": "uint256",
          "name": "",
          "type": "uint256"
        }
      ],
      "stateMutability": "view",
      "type": "function"
    },
    {
      "inputs": [
        {
          "internalType": "address[]",
          "name": "accounts",
          "type": "address[]"
        },
        {
          "internalType": "uint256[]",
          "name": "ids",
          "type": "uint256[]"
        }
      ],
      "name": "balanceOfBatch",
      "outputs": [
        {
          "internalType": "uint256[]",
          "name": "",
          "type": "uint256[]"
        }
      ],
      "stateMutability": "view",
      "type": "function"
    },
    {
      "inputs": [
        {
          "internalType": "address",
          "name": "account",
          "type": "address"
        },
        {
          "internalType": "uint256",
          "name": "id",
          "type": "uint256"
        },
        {
          "internalType": "uint256",
          "name": "value",
          "type": "uint256"
        }
      ],
      "name": "burn",
      "outputs": [],
      "stateMutability": "nonpayable",
      "type": "function"
    },
    {
      "inputs": [
        {
          "internalType": "address",
          "name": "account",
          "type": "address"
        },
        {
          "internalType": "uint256[]",
          "name": "ids",
          "type": "uint256[]"
        },
        {
          "internalType": "uint256[]",
          "name": "values",
          "type": "uint256[]"
        }
      ],
      "name": "burnBatch",
      "outputs": [],
      "stateMutability": "nonpayable",
      "type": "function"
    },
    {
      "inputs": [
        {
          "internalType": "uint256",
          "name": "id",
          "type": "uint256"
        }
      ],
      "name": "exists",
      "outputs": [
        {
          "internalType": "bool",
          "name": "",
          "type": "bool"
        }
      ],
      "stateMutability": "view",
      "type": "function"
    },
    {
      "inputs": [
        {
          "internalType": "address",
          "name": "account",
          "type": "address"
        },
        {
          "internalType": "address",
          "name": "operator",
          "type": "address"
        }
      ],
      "name": "isApprovedForAll",
      "outputs": [
        {
          "internalType": "bool",
          "name": "",
          "type": "bool"
        }
      ],
      "stateMutability": "view",
      "type": "function"
    },
    {
      "inputs": [],
      "name": "manager",
      "outputs": [
        {
          "internalType": "address",
          "name": "",
          "type": "address"
        }
      ],
      "stateMutability": "view",
      "type": "function"
    },
    {
      "inputs": [],
      "name": "owner",
      "outputs": [
        {
          "internalType": "address",
          "name": "",
          "type": "address"
        }
      ],
      "stateMutability": "view",
      "type": "function"
    },
    {
      "inputs": [
        {
          "internalType": "address",
          "name": "newone",
          "type": "address"
        }
      ],
      "name": "removeAccess",
      "outputs": [],
      "stateMutability": "nonpayable",
      "type": "function"
    },
    {
      "inputs": [],
      "name": "renounceOwnership",
      "outputs": [],
      "stateMutability": "nonpayable",
      "type": "function"
    },
    {
      "inputs": [
        {
          "internalType": "address",
          "name": "retailers",
          "type": "address"
        }
      ],
      "name": "retailers",
      "outputs": [
        {
          "internalType": "bool",
          "name": "",
          "type": "bool"
        }
      ],
      "stateMutability": "view",
      "type": "function"
    },
    {
      "inputs": [
        {
          "internalType": "address",
          "name": "from",
          "type": "address"
        },
        {
          "internalType": "address",
          "name": "to",
          "type": "address"
        },
        {
          "internalType": "uint256[]",
          "name": "ids",
          "type": "uint256[]"
        },
        {
          "internalType": "uint256[]",
          "name": "amounts",
          "type": "uint256[]"
        },
        {
          "internalType": "bytes",
          "name": "data",
          "type": "bytes"
        }
      ],
      "name": "safeBatchTransferFrom",
      "outputs": [],
      "stateMutability": "nonpayable",
      "type": "function"
    },
    {
      "inputs": [
        {
          "internalType": "address",
          "name": "from",
          "type": "address"
        },
        {
          "internalType": "address",
          "name": "to",
          "type": "address"
        },
        {
          "internalType": "uint256",
          "name": "id",
          "type": "uint256"
        },
        {
          "internalType": "uint256",
          "name": "amount",
          "type": "uint256"
        },
        {
          "internalType": "bytes",
          "name": "data",
          "type": "bytes"
        }
      ],
      "name": "safeTransferFrom",
      "outputs": [],
      "stateMutability": "nonpayable",
      "type": "function"
    },
    {
      "inputs": [
        {
          "internalType": "address",
          "name": "operator",
          "type": "address"
        },
        {
          "internalType": "bool",
          "name": "approved",
          "type": "bool"
        }
      ],
      "name": "setApprovalForAll",
      "outputs": [],
      "stateMutability": "nonpayable",
      "type": "function"
    },
    {
      "inputs": [
        {
          "internalType": "uint256",
          "name": "tokenId",
          "type": "uint256"
        },
        {
          "internalType": "string",
          "name": "_uri",
          "type": "string"
        }
      ],
      "name": "setURI",
      "outputs": [],
      "stateMutability": "nonpayable",
      "type": "function"
    },
    {
      "inputs": [
        {
          "internalType": "bytes4",
          "name": "interfaceId",
          "type": "bytes4"
        }
      ],
      "name": "supportsInterface",
      "outputs": [
        {
          "internalType": "bool",
          "name": "",
          "type": "bool"
        }
      ],
      "stateMutability": "view",
      "type": "function"
    },
    {
      "inputs": [
        {
          "internalType": "uint256",
          "name": "id",
          "type": "uint256"
        }
      ],
      "name": "totalSupply",
      "outputs": [
        {
          "internalType": "uint256",
          "name": "",
          "type": "uint256"
        }
      ],
      "stateMutability": "view",
      "type": "function"
    },
    {
      "inputs": [
        {
          "internalType": "uint256",
          "name": "transactionId",
          "type": "uint256"
        }
      ],
      "name": "transactions",
      "outputs": [
        {
          "internalType": "address",
          "name": "to",
          "type": "address"
        },
        {
          "internalType": "uint256",
          "name": "time",
          "type": "uint256"
        }
      ],
      "stateMutability": "view",
      "type": "function"
    },
    {
      "inputs": [
        {
          "internalType": "address",
          "name": "newOwner",
          "type": "address"
        }
      ],
      "name": "transferOwnership",
      "outputs": [],
      "stateMutability": "nonpayable",
      "type": "function"
    },
    {
      "inputs": [
        {
          "internalType": "address",
          "name": "from",
          "type": "address"
        },
        {
          "internalType": "address",
          "name": "to",
          "type": "address"
        },
        {
          "internalType": "uint256[]",
          "name": "ids",
          "type": "uint256[]"
        },
        {
          "internalType": "uint256[]",
          "name": "amounts",
          "type": "uint256[]"
        },
        {
          "internalType": "bytes",
          "name": "data",
          "type": "bytes"
        }
      ],
      "name": "transferproduct",
      "outputs": [],
      "stateMutability": "nonpayable",
      "type": "function"
    },
    {
      "inputs": [
        {
          "internalType": "uint256",
          "name": "",
          "type": "uint256"
        }
      ],
      "name": "uri",
      "outputs": [
        {
          "internalType": "string",
          "name": "",
          "type": "string"
        }
      ],
      "stateMutability": "view",
      "type": "function"
    },
    {
      "inputs": [
        {
          "internalType": "uint256",
          "name": "tokenid",
          "type": "uint256"
        }
      ],
      "name": "uris",
      "outputs": [
        {
          "internalType": "string",
          "name": "uri",
          "type": "string"
        }
      ],
      "stateMutability": "view",
      "type": "function"
    }
  ],
  "bytecode": "0x60806040523480156200001157600080fd5b506040805160208101909152600081526200002c816200008e565b506200003833620000a0565b60016005819055600680546001600160a01b031916339081179091556000908152600960209081526040909120805460ff1916909217909155620000889060089062000e11620000f2821b17901c565b6200026c565b60026200009c8282620001a0565b5050565b600380546001600160a01b038381166001600160a01b0319831681179093556040519116919082907f8be0079c531659141344cd1fd0a4f28419497f9722a3daafe3b4186f6b6457e090600090a35050565b80546001019055565b634e487b7160e01b600052604160045260246000fd5b600181811c908216806200012657607f821691505b6020821081036200014757634e487b7160e01b600052602260045260246000fd5b50919050565b601f8211156200019b57600081815260208120601f850160051c81016020861015620001765750805b601f850160051c820191505b81811015620001975782815560010162000182565b5050505b505050565b81516001600160401b03811115620001bc57620001bc620000fb565b620001d481620001cd845462000111565b846200014d565b602080601f8311600181146200020c5760008415620001f35750858301515b600019600386901b1c1916600185901b17855562000197565b600085815260208120601f198616915b828110156200023d578886015182559484019460019091019084016200021c565b50858210156200025c5787850151600019600388901b60f8161c191681555b5050505050600190811b01905550565b6128e1806200027c6000396000f3fe608060405234801561001057600080fd5b50600436106101ad5760003560e01c8063862440e2116100ee578063a22cb46511610097578063e985e9c511610071578063e985e9c514610419578063f242432a14610455578063f2fde38b14610468578063f5298aca1461047b57600080fd5b8063a22cb465146103c3578063bd85b039146103d6578063d63a8e11146103f657600080fd5b80639a268f35116100c85780639a268f351461033b5780639ace38c21461035e578063a118f249146103b057600080fd5b8063862440e2146103045780638823da6c146103175780638da5cb5b1461032a57600080fd5b80633f46320c1161015b5780634e1273f4116101355780634e1273f4146102a75780634f558e79146102c75780636b20c454146102e9578063715018a6146102fc57600080fd5b80633f46320c14610256578063481c6a75146102695780634bb0d8a41461029457600080fd5b80630eea60f91161018c5780630eea60f91461021b5780631253c546146102305780632eb2c2d61461024357600080fd5b8062fdd58e146101b257806301ffc9a7146101d85780630e89341c146101fb575b600080fd5b6101c56101c0366004611ec6565b61048e565b6040519081526020015b60405180910390f35b6101eb6101e6366004611f06565b61053a565b60405190151581526020016101cf565b61020e610209366004611f2a565b6105d5565b6040516101cf9190611f89565b61022e610229366004611f9c565b610669565b005b61020e61023e366004611f2a565b610695565b61022e610251366004612103565b61072f565b61022e6102643660046121ad565b6107c2565b60065461027c906001600160a01b031681565b6040516001600160a01b0390911681526020016101cf565b61022e6102a2366004612103565b6108c6565b6102ba6102b53660046122b0565b610a0e565b6040516101cf91906123b6565b6101eb6102d5366004611f2a565b600090815260046020526040902054151590565b61022e6102f73660046123c9565b610b4c565b61022e610bdb565b61022e61031236600461243d565b610bef565b61022e610325366004611f9c565b610c07565b6003546001600160a01b031661027c565b6101eb610349366004611f9c565b600a6020526000908152604090205460ff1681565b61039161036c366004611f2a565b600c60205260009081526040902080546003909101546001600160a01b039091169082565b604080516001600160a01b0390931683526020830191909152016101cf565b61022e6103be366004611f9c565b610c30565b61022e6103d136600461247a565b610c5c565b6101c56103e4366004611f2a565b60009081526004602052604090205490565b6101eb610404366004611f9c565b60096020526000908152604090205460ff1681565b6101eb6104273660046124b6565b6001600160a01b03918216600090815260016020908152604080832093909416825291909152205460ff1690565b61022e6104633660046124e9565b610c6b565b61022e610476366004611f9c565b610cf7565b61022e61048936600461254e565b610d87565b60006001600160a01b0383166105115760405162461bcd60e51b815260206004820152602a60248201527f455243313135353a2061646472657373207a65726f206973206e6f742061207660448201527f616c6964206f776e65720000000000000000000000000000000000000000000060648201526084015b60405180910390fd5b506000818152602081815260408083206001600160a01b03861684529091529020545b92915050565b60006001600160e01b031982167fd9b67a2600000000000000000000000000000000000000000000000000000000148061059d57506001600160e01b031982167f0e89341c00000000000000000000000000000000000000000000000000000000145b8061053457507f01ffc9a7000000000000000000000000000000000000000000000000000000006001600160e01b0319831614610534565b6060600280546105e490612581565b80601f016020809104026020016040519081016040528092919081815260200182805461061090612581565b801561065d5780601f106106325761010080835404028352916020019161065d565b820191906000526020600020905b81548152906001019060200180831161064057829003601f168201915b50505050509050919050565b610671610e1a565b6001600160a01b03166000908152600a60205260409020805460ff19166001179055565b600b60205260009081526040902080546106ae90612581565b80601f01602080910402602001604051908101604052809291908181526020018280546106da90612581565b80156107275780601f106106fc57610100808354040283529160200191610727565b820191906000526020600020905b81548152906001019060200180831161070a57829003601f168201915b505050505081565b6001600160a01b03851633148061074b575061074b8533610427565b6107ae5760405162461bcd60e51b815260206004820152602e60248201527f455243313135353a2063616c6c6572206973206e6f7420746f6b656e206f776e60448201526d195c881bdc88185c1c1c9bdd995960921b6064820152608401610508565b6107bb8585858585610e74565b5050505050565b3360009081526009602052604090205460ff1615156001146108265760405162461bcd60e51b815260206004820152600b60248201527f4e6f7420416c6c6f7765640000000000000000000000000000000000000000006044820152606401610508565b60065460408051600081526020810190915261084f916001600160a01b031690859085906110e0565b60005b83518110156108c05781818151811061086d5761086d6125bb565b6020026020010151600b600086848151811061088b5761088b6125bb565b6020026020010151815260200190815260200160002090816108ad9190612617565b50806108b8816126ed565b915050610852565b50505050565b6108ce610e1a565b6001600160a01b0384166000908152600a6020526040812054859160ff9091161515900361093e5760405162461bcd60e51b815260206004820152600e60248201527f4e6f7420612072657461696c65720000000000000000000000000000000000006044820152606401610508565b61094c600780546001019055565b600061095760075490565b604080516080810182526001600160a01b03898116825260208083018a81528385018a90524260608501526000868152600c8352949094208351815473ffffffffffffffffffffffffffffffffffffffff1916931692909217825592518051949550919390926109ce926001850192910190611e4a565b50604082015180516109ea916002840191602090910190611e4a565b5060608201518160030155905050610a058787878787610e74565b50505050505050565b60608151835114610a875760405162461bcd60e51b815260206004820152602960248201527f455243313135353a206163636f756e747320616e6420696473206c656e67746860448201527f206d69736d6174636800000000000000000000000000000000000000000000006064820152608401610508565b6000835167ffffffffffffffff811115610aa357610aa3611fb7565b604051908082528060200260200182016040528015610acc578160200160208202803683370190505b50905060005b8451811015610b4457610b17858281518110610af057610af06125bb565b6020026020010151858381518110610b0a57610b0a6125bb565b602002602001015161048e565b828281518110610b2957610b296125bb565b6020908102919091010152610b3d816126ed565b9050610ad2565b509392505050565b6001600160a01b038316331480610b685750610b688333610427565b610bcb5760405162461bcd60e51b815260206004820152602e60248201527f455243313135353a2063616c6c6572206973206e6f7420746f6b656e206f776e60448201526d195c881bdc88185c1c1c9bdd995960921b6064820152608401610508565b610bd68383836112d1565b505050565b610be3610e1a565b610bed6000611526565b565b6000828152600b60205260409020610bd68282612617565b610c0f610e1a565b6001600160a01b03166000908152600960205260409020805460ff19169055565b610c38610e1a565b6001600160a01b03166000908152600960205260409020805460ff19166001179055565b610c67338383611585565b5050565b6001600160a01b038516331480610c875750610c878533610427565b610cea5760405162461bcd60e51b815260206004820152602e60248201527f455243313135353a2063616c6c6572206973206e6f7420746f6b656e206f776e60448201526d195c881bdc88185c1c1c9bdd995960921b6064820152608401610508565b6107bb8585858585611679565b610cff610e1a565b6001600160a01b038116610d7b5760405162461bcd60e51b815260206004820152602660248201527f4f776e61626c653a206e6577206f776e657220697320746865207a65726f206160448201527f64647265737300000000000000000000000000000000000000000000000000006064820152608401610508565b610d8481611526565b50565b6001600160a01b038316331480610da35750610da38333610427565b610e065760405162461bcd60e51b815260206004820152602e60248201527f455243313135353a2063616c6c6572206973206e6f7420746f6b656e206f776e60448201526d195c881bdc88185c1c1c9bdd995960921b6064820152608401610508565b610bd6838383611832565b80546001019055565b6003546001600160a01b03163314610bed5760405162461bcd60e51b815260206004820181905260248201527f4f776e61626c653a2063616c6c6572206973206e6f7420746865206f776e65726044820152606401610508565b8151835114610ed65760405162461bcd60e51b815260206004820152602860248201527f455243313135353a2069647320616e6420616d6f756e7473206c656e677468206044820152670dad2e6dac2e8c6d60c31b6064820152608401610508565b6001600160a01b038416610f3a5760405162461bcd60e51b815260206004820152602560248201527f455243313135353a207472616e7366657220746f20746865207a65726f206164604482015264647265737360d81b6064820152608401610508565b33610f498187878787876119c2565b60005b8451811015611072576000858281518110610f6957610f696125bb565b602002602001015190506000858381518110610f8757610f876125bb565b602090810291909101810151600084815280835260408082206001600160a01b038e16835290935291909120549091508181101561101a5760405162461bcd60e51b815260206004820152602a60248201527f455243313135353a20696e73756666696369656e742062616c616e636520666f60448201526939103a3930b739b332b960b11b6064820152608401610508565b6000838152602081815260408083206001600160a01b038e8116855292528083208585039055908b16825281208054849290611057908490612706565b925050819055505050508061106b906126ed565b9050610f4c565b50846001600160a01b0316866001600160a01b0316826001600160a01b03167f4a39dc06d4c0dbc64b70af90fd698a233a518aa5d07e595d983b8c0526c8f7fb87876040516110c2929190612719565b60405180910390a46110d88187878787876119d0565b505050505050565b6001600160a01b03841661115c5760405162461bcd60e51b815260206004820152602160248201527f455243313135353a206d696e7420746f20746865207a65726f2061646472657360448201527f73000000000000000000000000000000000000000000000000000000000000006064820152608401610508565b81518351146111be5760405162461bcd60e51b815260206004820152602860248201527f455243313135353a2069647320616e6420616d6f756e7473206c656e677468206044820152670dad2e6dac2e8c6d60c31b6064820152608401610508565b336111ce816000878787876119c2565b60005b8451811015611269578381815181106111ec576111ec6125bb565b6020026020010151600080878481518110611209576112096125bb565b602002602001015181526020019081526020016000206000886001600160a01b03166001600160a01b0316815260200190815260200160002060008282546112519190612706565b90915550819050611261816126ed565b9150506111d1565b50846001600160a01b031660006001600160a01b0316826001600160a01b03167f4a39dc06d4c0dbc64b70af90fd698a233a518aa5d07e595d983b8c0526c8f7fb87876040516112ba929190612719565b60405180910390a46107bb816000878787876119d0565b6001600160a01b0383166113335760405162461bcd60e51b815260206004820152602360248201527f455243313135353a206275726e2066726f6d20746865207a65726f206164647260448201526265737360e81b6064820152608401610508565b80518251146113955760405162461bcd60e51b815260206004820152602860248201527f455243313135353a2069647320616e6420616d6f756e7473206c656e677468206044820152670dad2e6dac2e8c6d60c31b6064820152608401610508565b60003390506113b8818560008686604051806020016040528060008152506119c2565b60005b83518110156114b95760008482815181106113d8576113d86125bb565b6020026020010151905060008483815181106113f6576113f66125bb565b602090810291909101810151600084815280835260408082206001600160a01b038c1683529093529190912054909150818110156114825760405162461bcd60e51b8152602060048201526024808201527f455243313135353a206275726e20616d6f756e7420657863656564732062616c604482015263616e636560e01b6064820152608401610508565b6000928352602083815260408085206001600160a01b038b16865290915290922091039055806114b1816126ed565b9150506113bb565b5060006001600160a01b0316846001600160a01b0316826001600160a01b03167f4a39dc06d4c0dbc64b70af90fd698a233a518aa5d07e595d983b8c0526c8f7fb868660405161150a929190612719565b60405180910390a46040805160208101909152600090526108c0565b600380546001600160a01b0383811673ffffffffffffffffffffffffffffffffffffffff19831681179093556040519116919082907f8be0079c531659141344cd1fd0a4f28419497f9722a3daafe3b4186f6b6457e090600090a35050565b816001600160a01b0316836001600160a01b03160361160c5760405162461bcd60e51b815260206004820152602960248201527f455243313135353a2073657474696e6720617070726f76616c2073746174757360448201527f20666f722073656c6600000000000000000000000000000000000000000000006064820152608401610508565b6001600160a01b03838116600081815260016020908152604080832094871680845294825291829020805460ff191686151590811790915591519182527f17307eab39ab6107e8899845ad3d59bd9653f200f220920489ca2b5937696c31910160405180910390a3505050565b6001600160a01b0384166116dd5760405162461bcd60e51b815260206004820152602560248201527f455243313135353a207472616e7366657220746f20746865207a65726f206164604482015264647265737360d81b6064820152608401610508565b3360006116e985611b75565b905060006116f685611b75565b90506117068389898585896119c2565b6000868152602081815260408083206001600160a01b038c1684529091529020548581101561178a5760405162461bcd60e51b815260206004820152602a60248201527f455243313135353a20696e73756666696369656e742062616c616e636520666f60448201526939103a3930b739b332b960b11b6064820152608401610508565b6000878152602081815260408083206001600160a01b038d8116855292528083208985039055908a168252812080548892906117c7908490612706565b909155505060408051888152602081018890526001600160a01b03808b16928c821692918816917fc3d58168c5ae7397731d063d5bbf3d657854427343f4c083240f7aacaa2d0f62910160405180910390a4611827848a8a8a8a8a611bc0565b505050505050505050565b6001600160a01b0383166118945760405162461bcd60e51b815260206004820152602360248201527f455243313135353a206275726e2066726f6d20746865207a65726f206164647260448201526265737360e81b6064820152608401610508565b3360006118a084611b75565b905060006118ad84611b75565b90506118cd838760008585604051806020016040528060008152506119c2565b6000858152602081815260408083206001600160a01b038a1684529091529020548481101561194a5760405162461bcd60e51b8152602060048201526024808201527f455243313135353a206275726e20616d6f756e7420657863656564732062616c604482015263616e636560e01b6064820152608401610508565b6000868152602081815260408083206001600160a01b038b81168086529184528285208a8703905582518b81529384018a90529092908816917fc3d58168c5ae7397731d063d5bbf3d657854427343f4c083240f7aacaa2d0f62910160405180910390a4604080516020810190915260009052610a05565b6110d8868686868686611cbc565b6001600160a01b0384163b156110d85760405163bc197c8160e01b81526001600160a01b0385169063bc197c8190611a149089908990889088908890600401612747565b6020604051808303816000875af1925050508015611a4f575060408051601f3d908101601f19168201909252611a4c918101906127a5565b60015b611b0457611a5b6127c2565b806308c379a003611a945750611a6f6127de565b80611a7a5750611a96565b8060405162461bcd60e51b81526004016105089190611f89565b505b60405162461bcd60e51b815260206004820152603460248201527f455243313135353a207472616e7366657220746f206e6f6e2d4552433131353560448201527f526563656976657220696d706c656d656e7465720000000000000000000000006064820152608401610508565b6001600160e01b0319811663bc197c8160e01b14610a055760405162461bcd60e51b815260206004820152602860248201527f455243313135353a204552433131353552656365697665722072656a656374656044820152676420746f6b656e7360c01b6064820152608401610508565b60408051600180825281830190925260609160009190602080830190803683370190505090508281600081518110611baf57611baf6125bb565b602090810291909101015292915050565b6001600160a01b0384163b156110d85760405163f23a6e6160e01b81526001600160a01b0385169063f23a6e6190611c049089908990889088908890600401612868565b6020604051808303816000875af1925050508015611c3f575060408051601f3d908101601f19168201909252611c3c918101906127a5565b60015b611c4b57611a5b6127c2565b6001600160e01b0319811663f23a6e6160e01b14610a055760405162461bcd60e51b815260206004820152602860248201527f455243313135353a204552433131353552656365697665722072656a656374656044820152676420746f6b656e7360c01b6064820152608401610508565b6001600160a01b038516611d435760005b8351811015611d4157828181518110611ce857611ce86125bb565b602002602001015160046000868481518110611d0657611d066125bb565b602002602001015181526020019081526020016000206000828254611d2b9190612706565b90915550611d3a9050816126ed565b9050611ccd565b505b6001600160a01b0384166110d85760005b8351811015610a05576000848281518110611d7157611d716125bb565b602002602001015190506000848381518110611d8f57611d8f6125bb565b6020026020010151905060006004600084815260200190815260200160002054905081811015611e275760405162461bcd60e51b815260206004820152602860248201527f455243313135353a206275726e20616d6f756e74206578636565647320746f7460448201527f616c537570706c790000000000000000000000000000000000000000000000006064820152608401610508565b60009283526004602052604090922091039055611e43816126ed565b9050611d54565b828054828255906000526020600020908101928215611e85579160200282015b82811115611e85578251825591602001919060010190611e6a565b50611e91929150611e95565b5090565b5b80821115611e915760008155600101611e96565b80356001600160a01b0381168114611ec157600080fd5b919050565b60008060408385031215611ed957600080fd5b611ee283611eaa565b946020939093013593505050565b6001600160e01b031981168114610d8457600080fd5b600060208284031215611f1857600080fd5b8135611f2381611ef0565b9392505050565b600060208284031215611f3c57600080fd5b5035919050565b6000815180845260005b81811015611f6957602081850181015186830182015201611f4d565b506000602082860101526020601f19601f83011685010191505092915050565b602081526000611f236020830184611f43565b600060208284031215611fae57600080fd5b611f2382611eaa565b634e487b7160e01b600052604160045260246000fd5b601f8201601f1916810167ffffffffffffffff81118282101715611ff357611ff3611fb7565b6040525050565b600067ffffffffffffffff82111561201457612014611fb7565b5060051b60200190565b600082601f83011261202f57600080fd5b8135602061203c82611ffa565b6040516120498282611fcd565b83815260059390931b850182019282810191508684111561206957600080fd5b8286015b84811015612084578035835291830191830161206d565b509695505050505050565b600082601f8301126120a057600080fd5b813567ffffffffffffffff8111156120ba576120ba611fb7565b6040516120d1601f8301601f191660200182611fcd565b8181528460208386010111156120e657600080fd5b816020850160208301376000918101602001919091529392505050565b600080600080600060a0868803121561211b57600080fd5b61212486611eaa565b945061213260208701611eaa565b9350604086013567ffffffffffffffff8082111561214f57600080fd5b61215b89838a0161201e565b9450606088013591508082111561217157600080fd5b61217d89838a0161201e565b9350608088013591508082111561219357600080fd5b506121a08882890161208f565b9150509295509295909350565b6000806000606084860312156121c257600080fd5b833567ffffffffffffffff808211156121da57600080fd5b6121e68783880161201e565b94506020915081860135818111156121fd57600080fd5b6122098882890161201e565b94505060408601358181111561221e57600080fd5b8601601f8101881361222f57600080fd5b803561223a81611ffa565b6040516122478282611fcd565b82815260059290921b830185019185810191508a83111561226757600080fd5b8584015b8381101561229f578035868111156122835760008081fd5b6122918d898389010161208f565b84525091860191860161226b565b508096505050505050509250925092565b600080604083850312156122c357600080fd5b823567ffffffffffffffff808211156122db57600080fd5b818501915085601f8301126122ef57600080fd5b813560206122fc82611ffa565b6040516123098282611fcd565b83815260059390931b850182019282810191508984111561232957600080fd5b948201945b8386101561234e5761233f86611eaa565b8252948201949082019061232e565b9650508601359250508082111561236457600080fd5b506123718582860161201e565b9150509250929050565b600081518084526020808501945080840160005b838110156123ab5781518752958201959082019060010161238f565b509495945050505050565b602081526000611f23602083018461237b565b6000806000606084860312156123de57600080fd5b6123e784611eaa565b9250602084013567ffffffffffffffff8082111561240457600080fd5b6124108783880161201e565b9350604086013591508082111561242657600080fd5b506124338682870161201e565b9150509250925092565b6000806040838503121561245057600080fd5b82359150602083013567ffffffffffffffff81111561246e57600080fd5b6123718582860161208f565b6000806040838503121561248d57600080fd5b61249683611eaa565b9150602083013580151581146124ab57600080fd5b809150509250929050565b600080604083850312156124c957600080fd5b6124d283611eaa565b91506124e060208401611eaa565b90509250929050565b600080600080600060a0868803121561250157600080fd5b61250a86611eaa565b945061251860208701611eaa565b93506040860135925060608601359150608086013567ffffffffffffffff81111561254257600080fd5b6121a08882890161208f565b60008060006060848603121561256357600080fd5b61256c84611eaa565b95602085013595506040909401359392505050565b600181811c9082168061259557607f821691505b6020821081036125b557634e487b7160e01b600052602260045260246000fd5b50919050565b634e487b7160e01b600052603260045260246000fd5b601f821115610bd657600081815260208120601f850160051c810160208610156125f85750805b601f850160051c820191505b818110156110d857828155600101612604565b815167ffffffffffffffff81111561263157612631611fb7565b6126458161263f8454612581565b846125d1565b602080601f83116001811461267a57600084156126625750858301515b600019600386901b1c1916600185901b1785556110d8565b600085815260208120601f198616915b828110156126a95788860151825594840194600190910190840161268a565b50858210156126c75787850151600019600388901b60f8161c191681555b5050505050600190811b01905550565b634e487b7160e01b600052601160045260246000fd5b6000600182016126ff576126ff6126d7565b5060010190565b80820180821115610534576105346126d7565b60408152600061272c604083018561237b565b828103602084015261273e818561237b565b95945050505050565b60006001600160a01b03808816835280871660208401525060a0604083015261277360a083018661237b565b8281036060840152612785818661237b565b905082810360808401526127998185611f43565b98975050505050505050565b6000602082840312156127b757600080fd5b8151611f2381611ef0565b600060033d11156127db5760046000803e5060005160e01c5b90565b600060443d10156127ec5790565b6040516003193d81016004833e81513d67ffffffffffffffff816024840111818411171561281c57505050505090565b82850191508151818111156128345750505050505090565b843d870101602082850101111561284e5750505050505090565b61285d60208286010187611fcd565b509095945050505050565b60006001600160a01b03808816835280871660208401525084604083015283606083015260a060808301526128a060a0830184611f43565b97965050505050505056fea264697066735822122013abc91bcadf7e8690c2cf23ff2495a098a717d69fe5f61798d7efdac6d0fafc64736f6c63430008120033",
  "linkReferences": {},
  "deployedLinkReferences": {}
}